:100000000C9458000C9480000C9480000C94800098
:100010000C9480000C9480000C9480000C94800060
:100020000C9480000C9480000C9480000C94800050
:100030000C9480000C9480000C9480000C94800040
:100040000C94E9020C9480000C94B7020C94910279
:100050000C9480000C9480000C9480000C94800020
:100060000C9433030C94800000000000250028004D
:100070002B00040404040404040402020202020229
:10008000030303030303010204081020408001025C
:1000900004081020010204081020000000080002DB
:1000A0000100000304070000000000000000380BFE
:1000B00011241FBECFEFD8E0DEBFCDBF11E0A0E01E
:1000C000B1E0EEEFFCE102C005900D92AA37B10756
:1000D000D9F723E0AAE7B1E001C01D92A732B20729
:1000E000E1F710E0C8E5D0E004C02197FE010E94CE
:1000F000720EC735D107C9F70E94D2060C947D0E47
:100100000C940000089508958091310290E02091B0
:100110003202821B91090895CF92DF92EF92FF92F3
:100120000F931F93CF93DF936C017A018B01C0E093
:10013000D0E0CE15DF0581F0D8016D918D01D6019B
:10014000ED91FC910190F081E02DC6010995892B7C
:1001500011F02196EECF7E01C701DF91CF911F9163
:100160000F91FF90EF90DF90CF900895FC01538D99
:10017000448D252F30E0842F90E0821B930B541781
:1001800010F0CF96089501970895FC01918D828D0E
:10019000981761F0828DDF01A80FB11D5D968C91DB
:1001A000928D9F5F9F73928F90E008958FEF9FEFE6
:1001B0000895FC01918D828D981731F0828DE80FA2
:1001C000F11D858D90E008958FEF9FEF0895FC015C
:1001D000918D228D892F90E0805C9F4F821B910929
:1001E0008F739927089587E392E00E94E70021E04A
:1001F000892B09F420E0822F0895FC01848DDF0112
:10020000A80FB11DA35ABF4F2C91848D90E0019689
:100210008F739927848FA689B7892C93A089B18978
:100220008C91837080648C93938D848D981306C019
:100230000288F389E02D80818F7D80830895EF927D
:10024000FF920F931F93CF93DF93EC0181E0888F90
:100250009B8D8C8D981305C0E889F989808185FD77
:1002600026C0F62E0B8D10E00F5F1F4F0F73112766
:10027000E02E8C8DE8120CC00FB607FCFACFE8898F
:10028000F989808185FFF5CFCE010E94FD00F1CF75
:100290008B8DFE01E80FF11DE35AFF4FF0829FB7EF
:1002A000F8940B8FEA89FB89808180620AC09FB72E
:1002B000F894EE89FF896083E889F98980818370E9
:1002C000806480839FBF81E090E0DF91CF911F9198
:1002D0000F91FF90EF900895CF93DF93EC01888DFD
:1002E0008823C9F0EA89FB89808185FD05C0A8893A
:1002F000B9898C9186FD0FC00FB607FCF5CF8081C0
:1003000085FFF2CFA889B9898C9185FFEDCFCE0109
:100310000E94FD00E7CFDF91CF91089580E090E04B
:10032000892B29F00E94F30081110C94000008959C
:100330003FB7F8948091BE019091BF01A091C00198
:10034000B091C10126B5A89B05C02F3F19F00196B9
:10035000A11DB11D3FBFBA2FA92F982F8827820F4B
:10036000911DA11DB11DBC01CD0142E0660F771F9B
:10037000881F991F4A95D1F7089585ED8093BC0099
:100380008091BC0084FDFCCF10920802089540913A
:100390009A01262F30E0240F311D21323105DCF483
:1003A000209108022430C9F4FC0180E090E0861717
:1003B00058F430919A012191DC01A658BE4FA30F49
:1003C000B11D2C930196F3CF80919A01680F609331
:1003D0009A0180E0089581E0089582E008950895EB
:1003E000E091320280913102E81730F4F0E0EE53F0
:1003F000FE4F808190E008958FEF9FEF08959091D8
:10040000320280913102981750F4E92FF0E0EE5358
:10041000FE4F208130E09F5F9093320202C02FEFA9
:100420003FEFC9010895CF92DF92EF92FF920F93B1
:100430001F93CF93DF937C01CB018A0120912A0285
:10044000222389F0EB016B01C40ED51ECC15DD050E
:1004500069F06991D701ED91FC910190F081E02D57
:10046000C7010995F3CF642F0E94C701C801DF912E
:10047000CF911F910F91FF90EF90DF90CF90089553
:10048000CF93DF931F92CDB7DEB7698320912A0205
:100490002223D1F020912F02203240F021E030E0E1
:1004A000FC013383228380E090E015C0809130020C
:1004B000E82FF0E0E75FFD4F998190838F5F809395
:1004C000300280932F0205C061E0CE0101960E94A8
:1004D000C70181E090E00F90DF91CF9108950895DA
:1004E00080E090E008950E94780E1092080281E06A
:1004F000809307021092E20182E10E94610483E18D
:100500000E946104E9EBF0E080818E7F808380812E
:100510008D7F808388E48093B80085E48093BC005D
:1005200008951F920F920FB60F9211242F933F93AD
:100530004F935F936F937F938F939F93AF93BF93EB
:10054000EF93FF9387E392E00E94FD00FF91EF910C
:10055000BF91AF919F918F917F916F915F914F91DB
:100560003F912F910F900FBE0F901F9018951F92E3
:100570000F920FB60F9211242F938F939F93EF93A7
:10058000FF93E0914702F09148028081E0914D0293
:10059000F0914E0282FD12C09081809150028F5FD7
:1005A0008F7320915102821751F0E0915002F0E0D8
:1005B000E95CFD4F958F8093500201C08081FF91CF
:1005C000EF919F918F912F910F900FBE0F901F90E1
:1005D00018951F920F920FB60F9211242F933F93ED
:1005E0008F939F93AF93BF93809133029091340286
:1005F000A0913502B09136023091BD0123E0230F66
:100600002D3720F40196A11DB11D05C026E8230F4A
:100610000296A11DB11D2093BD01809333029093DA
:100620003402A0933502B09336028091BE019091BE
:10063000BF01A091C001B091C1010196A11DB11DE2
:100640008093BE019093BF01A093C001B093C101FC
:10065000BF91AF919F918F913F912F910F900FBEBE
:100660000F901F9018951F920F920FB60F921124A2
:100670002F933F934F935F936F937F938F939F93AA
:10068000AF93BF93EF93FF938091B900887F80363B
:1006900009F49CC068F5883209F45BC090F480319D
:1006A00009F454C038F4882309F4F6C0883009F4FA
:1006B0004DC0F6C0883109F44CC0803209F45DC0E9
:1006C000EFC0803409F468C048F4803309F455C0A1
:1006D000883309F0E5C080930602D8C0803509F45C
:1006E0004FC0883509F45DC0883409F0D9C0D6C040
:1006F000883909F4C7C0A8F4883709F467C038F40A
:10070000883609F463C0803709F460C0C9C08838EE
:1007100009F4B8C0803909F45FC0803809F0C0C05E
:100720005BC0803B09F486C038F4803A09F466C0A7
:10073000883A09F47FC0B4C0803C09F4A7C0883C63
:1007400009F4A4C0883B09F48AC0AAC08091E301DF
:1007500010C09091050280910402981770F5E09105
:10076000050281E08E0F80930502F0E0EC51FE4F10
:1007700080818093BB0085EC86C0809306028EC08A
:10078000E091050281E08E0F809305028091BB000D
:10079000F0E0EC51FE4F80839091050280910402BD
:1007A0006EC0E091050281E08E0F8093050280917A
:1007B000BB00F0E0EC51FE4F808380910702811175
:1007C0006DC081E08093E20184EA61C083E08093A0
:1007D00008021092BC01CFCF8091BC01803208F09A
:1007E00051C0E091BC0181E08E0F8093BC018091EB
:1007F000BB00F0E0E456FE4F8083BDCF85EC8093D4
:10080000BC00109208028091BC01803230F4E0916B
:10081000BC01F0E0E456FE4F10826091BC0170E034
:10082000E0912D02F0912E028CE991E00995109251
:10083000BC0136C084E08093080210929B011092A4
:100840009A01E0912B02F0912C02099580919A0176
:10085000811105C081E080939A0110927A01E091A4
:100860009B0181E08E0F80939B01F0E0E658FE4FE4
:1008700080818093BB0090919B0180919A01981791
:1008800008F479CF85E88093BC000AC085EC80939A
:10089000BC001092080204C0109206020E94BD0122
:1008A000FF91EF91BF91AF919F918F917F916F9148
:1008B0005F914F913F912F910F900FBE0F901F901E
:1008C000189590E0FC01E656FF4F2491FC01EA5791
:1008D000FF4F3491FC01EE58FF4FE491EE23B1F14C
:1008E000222339F1233091F038F42130A9F022305D
:1008F00001F584B58F7D12C0273091F02830A1F02A
:100900002430B9F4809180008F7D03C080918000F5
:100910008F77809380000DC084B58F7784BD09C028
:100920008091B0008F7703C08091B0008F7D80935D
:10093000B000F0E0EE0FFF1FE859FF4FA591B49112
:100940008FB7F894EC91E32BEC938FBF08954F92FF
:100950005F926F927F928F929F92AF92BF92CF924F
:10096000DF92EF92FF920F931F93CF93DF93EC01EF
:100970006091E0027091E1028091E2029091E302C5
:1009800023E333E948E853E40E94BA0B00912503BE
:10099000109126030115110539F02091EA023091DA
:1009A000EB022130310529F4E62FB72FA82FF92FBC
:1009B00004C0E0E0B0E0A0E0F0E020E030E04AE792
:1009C00054E46E2F7B2F8A2F9F2F0E942B0C2B011C
:1009D0003C018DE0C82E83E0D82E812C912C54014F
:1009E000F12CE12C60E070E080E89FE3FE1431F030
:1009F000A30192010E94830DE394F8CFF6012191A7
:100A00003191419151916F010E94830D9B01AC0185
:100A1000C501B4010E94BA0B4B015C01F394F6E0EE
:100A2000FF12DFCF2091E4023091E5024091E6020F
:100A30005091E7020115110549F08091EA02909169
:100A4000EB02019719F020E030E0A901C501B401E3
:100A50000E94830DC430D105D9F050F4C230D105C5
:100A600091F0239749F525EC3EEB4EEA5AE31EC080
:100A7000C630D105B9F088F02797F1F421EA38E6BD
:100A80004EE95CE313C02FE632E545E053E40EC0C7
:100A900020E431E342EB5AE309C02CEE36E74CEA9E
:100AA0005AE304C020E93DEB4EE55CE36B017C01B9
:100AB000C701B6010E94830D012B39F02091EA0293
:100AC0003091EB022130310529F4E62F472F382FE2
:100AD000292F04C0E0E040E030E020E06E2F742FCA
:100AE000832F922FDF91CF911F910F91FF90EF9065
:100AF000DF90CF90BF90AF909F908F907F906F903E
:100B00005F904F900895809598E021E387FF03C0A0
:100B1000880F822701C0880F9150C1F7682788E0AD
:100B200091E367FF03C0660F692701C0660F81501C
:100B3000C1F781E0461380E00895009769F0FC0159
:100B400001900020E9F73197AF01481B590BBC0118
:100B500087E392E00C948C0080E090E008950C9480
:100B60009D052F923F924F925F926F927F928F924C
:100B70009F92AF92BF92CF92DF92EF92FF920F932C
:100B80001F93CF93DF93CDB7DEB7A4970FB6F8943A
:100B9000DEBF0FBECDBF4B015C01F42E9B01AC014B
:100BA0000E94360E882319F08EE691E027C02401BA
:100BB0003501E89477F82FEF3FEF4FE75FE7C30188
:100BC000B2010E94360E81110DC02FEF3FEF4FE7AB
:100BD0005FE7C301B2010E94260C18161CF482E7DD
:100BE00091E00CC02FEF3FEF4FE75FE4C501B40188
:100BF0000E947E0D18162CF486E791E00E949D0558
:100C0000B8C02FEF3FEF4FE75FECC501B4010E9482
:100C1000260C87FDF1CF20E030E0A901C501B40129
:100C20000E94260C87FF0BC06DE287E392E00E94D2
:100C30001F013C01B7FAB094B7F8B09402C0612C20
:100C4000712C10E060E070E080E09FE3F11641F06D
:100C500020E030E040E251E40E942B0C1F5FF6CF11
:100C6000A50194010E94BA0B4B015C010E949D0CEE
:100C70006AA3C72ED82EE92E19A2262F372F482F68
:100C8000592F8E010F5D1F4F0BA31CA39AE0292E35
:100C9000312C412C512CCA01B901A20191010E94B1
:100CA000500E605DF80162938F01211531054105F9
:100CB000510589F7CF010E949D058301080F191F77
:100CC000FF2009F455C06AA17C2D8D2D9E2D0E9418
:100CD000CC0C9B01AC01C501B4010E94B90B4B01C6
:100CE0005C016EE287E392E00E941F01080F191F6A
:100CF0008AE0282E312C412C512C20E030E040E2BB
:100D000051E4C501B4010E94830D4B015C010E94B6
:100D10009D0C9B0140E050E019A2CBA0DCA0762EF8
:100D20003AA3642EE52ECA01B901A20191010E94E5
:100D3000500E605DF60162936F012115310541058A
:100D4000510589F7CF010E949D05080F191F672DD6
:100D50007AA1862D9E2D0E94CC0C9B01AC01C50171
:100D6000B4010E94B90B4B015C01FA94F110C5CF9C
:100D7000C801A4960FB6F894DEBF0FBECDBFDF91B9
:100D8000CF911F910F91FF90EF90DF90CF90BF9088
:100D9000AF909F908F907F906F905F904F903F901B
:100DA0002F900895CF93DF93CDB7DEB72A970FB674
:100DB000F894DEBF0FBECDBF789484B5826084BD49
:100DC00084B5816084BD85B5826085BD85B581604F
:100DD00085BD80916E00816080936E0010928100CD
:100DE0008091810082608093810080918100816088
:100DF0008093810080918000816080938000809149
:100E0000B10084608093B1008091B00081608093D4
:100E1000B00080917A00846080937A0080917A009B
:100E2000826080937A0080917A00816080937A005A
:100E300080917A00806880937A001092C100E091DE
:100E40004702F091480282E08083E0914302F091F2
:100E500044021082E0914502F09146028FEC8083BB
:100E600010924F02E0914B02F0914C0286E0808399
:100E7000E0914902F0914A02808180618083E09193
:100E80004902F0914A02808188608083E0914902A2
:100E9000F0914A02808180688083E0914902F0915C
:100EA0004A0280818F7D808310923202109231023B
:100EB0001092300210922F020E94750282E890E098
:100EC00090932C0280932B0283E890E090932E0263
:100ED00080932D0281E08093E80211E0CC24CA9433
:100EE00035EED32E05EC1E0127E0220E311C1092A8
:100EF0002603109225038091F5029091F602A091AD
:100F0000F702B091F802892B8A2B8B2B09F400C2CF
:100F10002FB7F8948091330290913402A09135025A
:100F2000B09136022FBF4091F5025091F6026091C8
:100F3000F7027091F802841B950BA60BB70B40913A
:100F4000F1025091F2026091F3027091F402841761
:100F50009507A607B70708F0DBC106C081E090E05F
:100F600090932603809325033091E0022091E102C3
:100F70009091E2028091E302409125035091260373
:100F8000452B39F04091EA025091EB024130510576
:100F900019F4E92F582F04C030E020E0E0E050E0E1
:100FA00042E0632F722F8E2F952F0E94B1058CE3A4
:100FB00091E00E949D058FE391E00E94AF0581E4DE
:100FC00091E00E94AF056091E4027091E50280918A
:100FD000E6029091E7022091250330912603232B0E
:100FE00051F02091EA023091EB022130310519F0E5
:100FF00060E070E0CB0142E00E94B10585E491E041
:101000000E94AF0581E491E00E94AF0581E090E08D
:101010000E94A70442E00E94B10587E491E00E948B
:10102000AF0581E491E00E94AF0587E090E00E9467
:10103000A70442E00E94B1058DE491E00E94AF0553
:1010400081E491E00E94AF0582E090E00E94A70455
:1010500042E00E94B10582E591E00E94AF0586E57D
:1010600091E00E94AF058090E4029090E502A0908C
:10107000E602B090E702E0902503F0902603E11429
:10108000F10431F08091EA029091EB02019719F599
:1010900020E030E040E251E4B401C5010E947E0D41
:1010A00087FD0AC020E030E044EB52E4B401C50102
:1010B0000E94260C18169CF520E030E040E251E436
:1010C000B401C5010E94260C87FF1AC0B82DA92DB6
:1010D000FA2DEB2D04C0B0E0A0E0F0E0E0E02DEC54
:1010E0003CEC4CE45EEB6B2F7A2F8F2F9E2F0E94EF
:1010F000830D20E030E040E850E40E94BA0B13C0BA
:101100002DEC3CEC4CE45EE3B401C5010E94830D80
:1011100020E030E040E851E40E94B90B04C060E0F8
:1011200070E080E090E4E114F10479F02091EA02AB
:101130003091EB022130310541F060E070E080E059
:1011400090E0812C912CA12CB12C9401A5014B0194
:101150005C01C501B4010E942B0C2B013C01809065
:10116000E0029090E102A090E202B090E302E1146C
:10117000F10439F08091EA029091EB02019709F0B5
:1011800043C020E030E0A901C501B4010E947E0DFA
:1011900087FD0AC020E030E042E852E4C501B40116
:1011A0000E94260C181644F520E030E042E852E494
:1011B000C501B4010E947E0D18167CF42CEA3BE8B0
:1011C0004BED5BE3C501B4010E94830D22E336EED3
:1011D0004EE65EE30E94B90B13C02AE037ED43E20E
:1011E0005CEBC501B4010E94830D2DEC3CEC4CE49A
:1011F0005EE30E94BA0B04C06DEC7CEC8CE49EE3D1
:10120000E114F10481F004C06DEC7CEC8CE49EE30D
:101210002091EA023091EB022130310521F060E0AB
:1012200070E080E090E02FE135E84BE65DE34B01B4
:101230005C01C501B4010E94830D4B015C01A30157
:101240009201C301B2010E94830D6F837887898761
:101250009A87A5019401C501B4010E94830D2B0159
:101260003C0186E090E00E94A7044B015C01A301D1
:1012700092016F81788589859A850E94BA0B0E94B8
:10128000F60D9B01AC01C501B4010E94830DEF284E
:1012900051F02091EA023091EB022130310519F032
:1012A00060E070E0CB0142E00E94B10585E691E08C
:1012B0000E94AF058BE691E00E949D050E94980177
:1012C0002B013C012DE4822E99249394A12CB12C66
:1012D0000E949801DC01CB0184199509A609B70980
:1012E000883E9340A105B10598F391E0891A9108D1
:1012F000A108B108E8EE4E0EE3E05E1E611C711C11
:1013000081149104A104B10419F70E948E01EFCD5C
:10131000E090EC02B090ED028091E802811114C0DF
:1013200010923202109231020E94750282E890E01F
:1013300090932C0280932B02E3E8F0E0F0932E02CE
:10134000E0932D021093E802F090EE0210932A022F
:10135000F09229021092300210922F026B2D84ED30
:1013600092E00E9440026E2D84ED92E00E944002C5
:1013700090912F02913208F042C0809108028111B1
:10138000FCCFF2E0F093080210930702C09206022D
:101390001092050290930402E9E0F2E0A4EEB1E0BD
:1013A000981721F021912D938F5FFACF1092E301CE
:1013B0008091E301FF0CF82AF092E3018091E201B1
:1013C000813069F41092E2018091E3018093BB00C7
:1013D0008091BC0083FDF8CF0093BC0002C0D09286
:1013E000BC00809108028230E1F3809106028F3FB9
:1013F00031F080910602803211F080910602109245
:10140000300210922F0210922A02809125039091AF
:101410002603892B09F023C18091EE0290910802E6
:101420009111FCCF1093080210930702C09206029C
:101430001092050225E0209304021093E30190919D
:10144000E301880F892B8093E3018091E2018130D1
:1014500069F41092E2018091E3018093BB008091D6
:10146000BC0083FDF8CF0093BC0002C0D092BC004A
:10147000809108028130E1F380910502863018F4F2
:101480009091050201C096E0A4EEB1E0E2ECF1E03B
:1014900080E0891721F02D9121938F5FFACF109270
:1014A0003202809331028FB7F89440913302509109
:1014B000340260913502709136028FBF8091310203
:1014C00090E020913202821B91090697E4F42FB735
:1014D000F8948091330290913402A0913502B0913A
:1014E00036022FBF841B950BA60BB70B8090F90219
:1014F0009090FA02A090FB02B090FC02881599052A
:10150000AA05BB05D8F22FB7F894809133029091C9
:101510003402A0913502B09136022FBF841B950B87
:10152000A60BB70B8090F9029090FA02A090FB02F4
:10153000B090FC0288159905AA05BB0508F00ECDF0
:101540004093F5025093F6026093F7027093F8020D
:10155000CE0101967C0184ED92E00E94FF01F7012B
:1015600081937F012E163F06B1F7AA80E9804B8157
:101570006A2D8E2D0E948305882309F46DC0BD80DD
:10158000FC804E816B2D8F2D0E948305882309F4EA
:1015900063C06E2D70E0762F66276A0D711D80E0A6
:1015A00090E00E94CC0C24EB30E04FE25BE30E9421
:1015B000830D20E030E044E352E40E94B90B209117
:1015C000FD023091FE024091FF02509100030E9403
:1015D000830D209101033091020340910303509148
:1015E00004030E94BA0B6093E0027093E1028093BF
:1015F000E2029093E3026F2D70E0762F66276B0D69
:10160000711D80E090E00E94CC0C25EB30E048ECAE
:101610005AE30E94830D2091050330910603409107
:101620000703509108030E94830D20910903309114
:101630000A0340910B0350910C030E94BA0B609374
:10164000E4027093E5028093E6029093E702109221
:1016500026031092250388CC82E090E081CC309163
:10166000E0022091E1029091E2028091E3028ACCB3
:10167000CF93DF93E7E3F2E01382128288EE93E0E8
:10168000A0E0B0E084839583A683B7832CE131E0AA
:101690003183208325EC30E03587248724EC30E04B
:1016A0003787268720EC30E0318B208B21EC30E02F
:1016B000338B228B22EC30E0358B248B26EC30E010
:1016C000378B268B118E128E138E148EE4EDF2E082
:1016D0001382128284839583A683B7838EE291E07E
:1016E00091838083C0EED2E0188684EF91E0A0E081
:1016F000B0E0898B9A8BAB8BBC8B1D8A1E8A1F8AAC
:10170000188E84E690E0A0E0B0E0898F9A8FAB8FCE
:10171000BC8F80E090E0A0E8BFE38D8F9E8FAF8FFD
:10172000B8A319A21AA21BA21CA28DA39EA3AFA3A9
:10173000B8A719A61AA61BA61CA688E1E0E0F1E04E
:10174000ADE0B3E001900D928A95E1F71092260387
:101750001092250384E48E871B861A868CE28D877F
:1017600086E08C87188A1F868FEF8987DF91CF915B
:1017700008955058BB27AA270E94D10B0C94440D02
:101780000E94360D38F00E943D0D20F039F49F3F45
:1017900019F426F40C94330D0EF4E095E7FB0C9449
:1017A0002D0DE92F0E94550D58F3BA1762077307E4
:1017B0008407950720F079F4A6F50C94770D0EF4C4
:1017C000E0950B2EBA2FA02D0B01B90190010C0151
:1017D000CA01A0011124FF27591B99F0593F50F469
:1017E000503E68F11A16F040A22F232F342F4427C1
:1017F000585FF3CF469537952795A795F0405395B9
:10180000C9F77EF41F16BA0B620B730B840BBAF088
:101810009150A1F0FF0FBB1F661F771F881FC2F7F3
:101820000EC0BA0F621F731F841F48F48795779507
:101830006795B795F7959E3F08F0B0CF9395880FC1
:1018400008F09927EE0F9795879508950E94090D46
:1018500008F481E008950E943F0C0C94440D0E940E
:101860003D0D58F00E94360D40F029F45F3F29F0FD
:101870000C942D0D51110C94780D0C94330D0E9485
:10188000550D68F39923B1F3552391F3951B550B2F
:10189000BB27AA2762177307840738F09F5F5F4F43
:1018A000220F331F441FAA1FA9F335D00E2E3AF082
:1018B000E0E832D091505040E695001CCAF72BD09A
:1018C000FE2F29D0660F771F881FBB1F26173707EB
:1018D0004807AB07B0E809F0BB0B802DBF01FF271D
:1018E00093585F4F3AF09E3F510578F00C942D0DC0
:1018F0000C94780D5F3FE4F3983ED4F3869577958A
:101900006795B795F7959F5FC9F7880F911D9695D5
:10191000879597F90895E1E0660F771F881FBB1F31
:10192000621773078407BA0720F0621B730B840BDE
:10193000BA0BEE1F88F7E09508950E945D0D88F0C0
:101940009F5798F0B92F9927B751B0F0E1F0660F83
:10195000771F881F991F1AF0BA95C9F714C0B130C4
:1019600091F00E94770DB1E008950C94770D672FE8
:10197000782F8827B85F39F0B93FCCF386957795F3
:101980006795B395D9F73EF49095809570956195DC
:101990007F4F8F4F9F4F0895E89409C097FB3EF407
:1019A00090958095709561957F4F8F4F9F4F9923AC
:1019B000A9F0F92F96E9BB279395F695879577952A
:1019C0006795B795F111F8CFFAF4BB0F11F460FFEA
:1019D0001BC06F5F7F4F8F4F9F4F16C0882311F042
:1019E00096E911C0772321F09EE8872F762F05C056
:1019F000662371F096E8862F70E060E02AF09A95F1
:101A0000660F771F881FDAF7880F9695879597F9E5
:101A10000895990F0008550FAA0BE0E8FEEF16167F
:101A20001706E807F907C0F012161306E407F507D2
:101A300098F0621B730B840B950B39F40A2661F046
:101A4000232B242B252B21F408950A2609F4A140E9
:101A5000A6958FEF811D811D089597F99F6780E8F6
:101A600070E060E008959FEF80EC089500240A94F0
:101A70001616170618060906089500240A94121669
:101A80001306140605060895092E0394000C11F49C
:101A9000882352F0BB0F40F4BF2B11F460FF04C049
:101AA0006F5F7F4F8F4F9F4F089557FD9058440FA2
:101AB000551F59F05F3F71F04795880F97FB991FAD
:101AC00061F09F3F79F0879508951216130614066A
:101AD000551FF2CF4695F1DF08C0161617061806F7
:101AE000991FF1CF86957105610508940895E894D2
:101AF000BB2766277727CB0197F908950E94090D28
:101B000008F48FEF08950E94960D0C94440D0E94E6
:101B1000360D38F00E943D0D20F0952311F00C9405
:101B20002D0D0C94330D11240C94780D0E94550D3D
:101B300070F3959FC1F3950F50E0551F629FF00120
:101B4000729FBB27F00DB11D639FAA27F00DB11D39
:101B5000AA1F649F6627B00DA11D661F829F2227C2
:101B6000B00DA11D621F739FB00DA11D621F839F49
:101B7000A00D611D221F749F3327A00D611D231F1F
:101B8000849F600D211D822F762F6A2F11249F576D
:101B900050409AF0F1F088234AF0EE0FFF1FBB1F70
:101BA000661F771F881F91505040A9F79E3F51052F
:101BB00080F00C942D0D0C94780D5F3FE4F3983E6B
:101BC000D4F3869577956795B795F795E7959F5FD9
:101BD000C1F7FE2B880F911D9695879597F908956B
:101BE00019F416F40C94330D0C943B0E0E945D0D09
:101BF000B8F39923C9F3B6F39F57550B87FF0E949B
:101C0000490E0024A0E640EA900180585695979529
:101C100028F4805C660F771F881F20F0261737078F
:101C2000480730F4621B730B840B202931294A2B9F
:101C3000A69517940794202531254A2758F7660F53
:101C4000771F881F20F026173707480730F4620BEC
:101C5000730B840B200D311D411DA09581F7B90137
:101C6000842F9158880F9695879508950E94090DA5
:101C7000880B990B08959F3F31F0915020F4879580
:101C800077956795B795880F911D9695879597F9E4
:101C9000089591505040660F771F881FD2F708951E
:101CA000A1E21A2EAA1BBB1BFD010DC0AA1FBB1F60
:101CB000EE1FFF1FA217B307E407F50720F0A21BD2
:101CC000B30BE40BF50B661F771F881F991F1A943F
:101CD00069F760957095809590959B01AC01BD0169
:101CE000CF010895EE0FFF1F0590F491E02D0994A8
:0E1CF00081E090E0F8940C947D0EF894FFCF04
:101CFE0006011DC3C26045451015C7C61986C947E2
:101D0E0060E34CC8F9842748000000001F018C00D6
:101D1E00B6006C01E700C500D900000000004002CB
:101D2E0013027002EF018400FF01F001C2B0004304
:101D3E0000207C2000250020546F727200207073EA
:101D4E0069002050610020546F6C6572616E63658E
:101D5E003A20C2B100206D48324F000D0A006E616C
:0A1D6E006E00696E66006F76660075
:107E0000112484B714BE81FFF0D085E080938100F7
:107E100082E08093C00088E18093C10086E0809377
:107E2000C20080E18093C4008EE0C9D0259A86E02C
:107E300020E33CEF91E0309385002093840096BBD3
:107E4000B09BFECF1D9AA8958150A9F7CC24DD24C4
:107E500088248394B5E0AB2EA1E19A2EF3E0BF2EE7
:107E6000A2D0813461F49FD0082FAFD0023811F036
:107E7000013811F484E001C083E08DD089C08234E0
:107E800011F484E103C0853419F485E0A6D080C0E4
:107E9000853579F488D0E82EFF2485D0082F10E0AE
:107EA000102F00270E291F29000F111F8ED06801E7
:107EB0006FC0863521F484E090D080E0DECF843638
:107EC00009F040C070D06FD0082F6DD080E0C81688
:107ED00080E7D80618F4F601B7BEE895C0E0D1E017
:107EE00062D089930C17E1F7F0E0CF16F0E7DF06D8
:107EF00018F0F601B7BEE89568D007B600FCFDCFD4
:107F0000A601A0E0B1E02C9130E011968C91119780
:107F100090E0982F8827822B932B1296FA010C0160
:107F200087BEE89511244E5F5F4FF1E0A038BF0790
:107F300051F7F601A7BEE89507B600FCFDCF97BE46
:107F4000E89526C08437B1F42ED02DD0F82E2BD052
:107F50003CD0F601EF2C8F010F5F1F4F84911BD097
:107F6000EA94F801C1F70894C11CD11CFA94CF0C13
:107F7000D11C0EC0853739F428D08EE10CD085E9AC
:107F80000AD08FE07ACF813511F488E018D01DD067
:107F900080E101D065CF982F8091C00085FFFCCF94
:107FA0009093C60008958091C00087FFFCCF809118
:107FB000C00084FD01C0A8958091C6000895E0E648
:107FC000F0E098E1908380830895EDDF803219F02E
:107FD00088E0F5DFFFCF84E1DECF1F93182FE3DFCA
:107FE0001150E9F7F2DF1F91089580E0E8DFEE27F6
:047FF000FF270994CA
:027FFE00040479
:0400000300007E007B
:00000001FF
